:100000000C94B9070C94E1070C94E1070C94E107F8
:100010000C94E1070C94E1070C94E1070C94E107C0
:100020000C94E1070C94E1070C94E1070C94E107B0
:100030000C94E1070C94E1070C94E1070C94E107A0
:100040000C94D9110C94E1070C9449120C942312CE
:100050000C94E1070C94E1070C94E1070C94E10780
:100060000C947B120C94E107FFE0FFD1AFFF32FF4D
:10007000D0FFFEFFE0FFD1AEFFD0FFFEFFE0FFD1DB
:100080001000FFFEFFD0FFE0FFC1FFD1AED580A87A
:100090003FD300408D142000A1C8DA1281CFD9F1DE
:1000A000DB402EA4A6AFFFD0FFFE0000000024001E
:1000B00027002A0000000000250028002B00000077
:1000C0000008000201000003040700000000000017
:1000D000000000000000230026002900040404049E
:1000E00004040404020202020202030303030303E2
:1000F00001020408102040800102040810200102BF
:1001000004081020001117FFFA0B021B04CD20FF7A
:10011000FD0EFD0BFD000000040001020B0B0401AD
:1001200000C0C0C0C0C0C0808000C0C005030307BD
:100130000108D8D890090A140900001B001B001BF5
:10014000007F8036003600FF006C006C006C0007FA
:100150000E0E0800FE107CD6D6D0F0781C16D6D62F
:100160007C10100C0B160D00007840CCC0CD8079AF
:10017000000300060004000DE00B301B3011E00905
:100180000A140B010038006C006C0038007300FB8F
:1001900000CE00C600CF007D80020303040108C02A
:1001A000C080040E0E0501FD306060C0C0C0C0C03C
:1001B000C0C0C0606030040E0E0500FDC06060303D
:1001C000303030303030306060C005040406000745
:1001D00020F870D8080707090001181818FF181828
:1001E000180303030400FF6060C00301010400045E
:1001F000E0020202040100C0C0040B0B0400001066
:1002000010302020604040C08080070B0B080000A9
:10021000386CC6C6C6C6C6C6C66C38040B0B080109
:100220000030F0303030303030303030070B0B08D9
:1002300000007CC6C6060E0C183060C0FE070B0B13
:100240000800007CC6C606063C0606C6C67C080B2F
:100250000B080000060E1E3666C6C6FF0606060719
:100260000B0B0800007E6060C0FC0E0606C6CC7852
:10027000070B0B0800003C6666C0DCE6C6C6C6C6B7
:100280007C070B0B080000FE060C0C1818303060C1
:100290006060070B0B0800007CC6C6C6C67CC6C6DD
:1002A000C6C67C070B0B0800007CC6C6C6C6C67E49
:1002B00006C6CC78020808050200C0C00000000095
:1002C000C0C00309090501FF606000000000606014
:1002D000C00605050801021C70C0701C0703030955
:1002E0000103FE00FE060505080102E0380C38E0B7
:1002F000070B0B0901007CC6C6060C183030003015
:10030000300D0C180E00FF0F8038E0707066B0CD15
:1003100098D998DB18DB30CEE0600031801F000AEE
:100320000B160A00000C000C001E001200330033F4
:100330000061807F806180C0C0C0C0080B0B0A01D3
:1003400000FEC7C3C3C6FCC6C3C3C7FE090B160B5A
:1003500001001F007B806080C000C000C000C000A2
:10036000C00060807B801F00090B160B0100FC00A1
:10037000C700C300C180C180C180C180C180C300EB
:10038000C700FC00070B0B090100FEC0C0C0C0FE87
:10039000C0C0C0C0FE070B0B090100FEC0C0C0C03A
:1003A000FCC0C0C0C0C0090B160B01001F007B8041
:1003B0006080C000C000C780C180C18061807B8038
:1003C0001E80080B0B0A0100C3C3C3C3C3FFC3C312
:1003D000C3C3C3020B0B040100C0C0C0C0C0C0C077
:1003E000C0C0C0C0070B0B080000060606060606C4
:1003F00006C6C6EE7C090B160A0100C300C600CC77
:1004000000D800F000F000D800CC00C600C300C146
:1004100080070B0B080100C0C0C0C0C0C0C0C0C076
:10042000C0FE0B0B160D0100C060C060E0E0E0E014
:10043000F1E0D160D160DB60CA60CE60C460090BBE
:10044000160B0100C180E180E180D180D980C98094
:10045000CD80C580C380C380C1800A0B160C01000B
:100460001E0073806180C0C0C0C0C0C0C0C0C0C01A
:10047000618073801E00080B0B0A0100FEC7C3C316
:10048000C7FEC0C0C0C0C00A0B160C01001E00731E
:10049000806180C0C0C0C0C0C0C0C0C6C06380731F
:1004A000801EC0090B160B0100FE00C700C300C36D
:1004B00000C600FE00C700C300C300C300C180081F
:1004C0000B0B0A01007EE7C3E0781E0703C3EE7C36
:1004D000080B0B080000FF1818181818181818181F
:1004E00018090B160B0100C180C180C180C180C1F9
:1004F00080C180C180C180C18063003E000A0B16AC
:100500000A0000C0C0C0C0618061807380330033C6
:10051000001E001E000C000C000E0B160E0000C387
:100520000CC30CC30C6798649864986CD82CD038B2
:100530007018601860090B16090000C180C1806343
:100540000036001C001C00360063006300C180C13F
:10055000800A0B160A0000C0C0618061803300333E
:10056000001E001E000C000C000C000C00080B0B01
:10057000090000FF03060C1C18307060C0FF040E59
:100580000E0501FDF0C0C0C0C0C0C0C0C0C0C0C02A
:10059000C0F0040B0B0400008080C04040602020AD
:1005A000301010040E0E0500FDF0303030303030C9
:1005B000303030303030F00605050801063078481C
:1005C000CCCC0801010800FDFF030202050109C0AF
:1005D0006007080808010078CC0C7CCCCCDC7607DE
:1005E0000B0B090100C0C0C0D8ECC6C6C6C6ECD80B
:1005F000060808080100386CCCC0C0CC6C38070B6A
:100600000B090100060606366EC6C6C6C66E36065D
:10061000080808010078CCCCFCC0C0EC78050B0BB6
:10062000040000386060F060606060606060070B2C
:100630000B0901FD3A6EC6C6C6C66E3606CE7C07ED
:100640000B0B090100C0C0C0DCEEC6C6C6C6C6C6DC
:10065000020B0B040100C0C000C0C0C0C0C0C0C0BD
:10066000C0030E0E0400FD606000606060606060AA
:10067000606060E0C0060B0B080100C0C0C0CCD8B1
:10068000F0F0D8D8CCCC020B0B040100C0C0C0C025
:10069000C0C0C0C0C0C0C00A08100C0100DB80EEA2
:1006A000C0CCC0CCC0CCC0CCC0CCC0CCC00708082B
:1006B000090100DCEEC6C6C6C6C6C60708080901A1
:1006C00000386CC6C6C6C66C38070B0B0901FDD8CE
:1006D000ECC6C6C6C6ECD8C0C0C0070B0B0901FDEE
:1006E000366EC6C6C6C66E3606060605080806017C
:1006F00000D8F8C0C0C0C0C0C00608080801007813
:10070000CCE0781C0CEC78050A0A0500006060F863
:1007100060606060606830070808090100C6C6C6EE
:10072000C6C6C6EE76080808080000C3C36666247D
:100730003C18180A08100A0000CCC0CCC0CCC06D10
:10074000806D80330033003300070808070000C6BF
:10075000C66C38386CC6C6080B0B0800FDC3C366F0
:1007600066243C1818183070060808060000FC0CB7
:1007700018303060C0FC050E0E0600FD1830303019
:100780003060C060303030303018010E0E0402FD91
:100790008080808080808080808080808080050E46
:1007A0000E0601FDC06060606030183060606060FF
:1007B00060C007030309010372DE8CFFFFFFFFFF28
:1007C000FFFFFFFFFFFFFFFFFFFFFFFFFFFFFFFF39
:1007D000FFFFFFFFFFFFFFFFFFFFFFFF0000000421
:1007E0000001020B0B0401FDC0C0004040C0C0C0AE
:1007F000C0C0C0070A0A0800FF043C6EC8D0D0E69B
:10080000667C40080B0B0800003C666660FC3030DC
:100810003060FBDE070707080002827C6C6C6C7C92
:1008200082080B0B090000C3C3C366663C7E187EBA
:100830001818010E0E0402FD808080808080000068
:10084000808080808080060E0E0801FD78CCCCE090
:1008500078DCCCCCEC781CCCCC7805020205000905
:10086000D8D80A0B160C01001E0061804C80D2C043
:1008700090409040904092404C8061801E0005075F
:1008800007060004709070D0F800F807050509010C
:1008900002366CD86C36070404090102FEFE02021F
:1008A000030101040004E00A0B160C01001E0061A4
:1008B000805C80924092409C409240924052806185
:1008C000801E00050101050009F804040406010763
:1008D00060909060080909090000181818FF18189E
:1008E0001800FF04060605000560B03060C0F00483
:1008F000060605000560B06030B060030202050125
:100900000960C0070B0B0901FDC6C6C6C6C6C6EE08
:10091000F6C0C0C0080E0E0800FD3F7AFAFAFA7A57
:100920003A0A0A0A0A0A0A0A020202040103C0C0B9
:100930000503030500FD18D87003060604000560D2
:10094000E06060606005070706000470D8D8D870C2
:1009500000F8070505090102D86C366CD80C0B1697
:100960000C00006180E18063006300660066200681
:10097000600CE00D6019F018600B0B160C000061A4
:1009800080E18063006300660066C007600C600C55
:10099000C0198019E00C0B160C00006180B1806357
:1009A000003300B600662006600CE00D6019F018F8
:1009B00060070B0B0901FD18180018183060C0C63D
:1009C000C67C0A0E1C0A000018000C0000000C0077
:1009D0000C001E0012003300330061807F806180B4
:1009E000C0C0C0C00A0E1C0A000006000C000000B7
:1009F0000C000C001E0012003300330061807F8069
:100A00006180C0C0C0C00A0E1C0A00000E001B009E
:100A100000000C000C001E00120033003300618047
:100A20007F806180C0C0C0C00A0E1C0A00000D009B
:100A3000160000000C000C001E00120033003300F2
:100A400061807F806180C0C0C0C00A0E1C0A0000A7
:100A50003300330000000C000C001E0012003300B5
:100A6000330061807F806180C0C0C0C00A0E1C0A54
:100A700000000C0012000C000C000C001E00120004
:100A80003300330061807F806180C0C0C0C00E0B26
:100A9000160F00000FFC0F001B001300330033F88B
:100AA00063007F006300C300C3FC090E1C0B01FD43
:100AB0001F007B806080C000C000C000C000C0007C
:100AC00060807B801F00060036001C00070E0E09A8
:100AD0000100301800FEC0C0C0C0FEC0C0C0C0FED3
:100AE000070E0E0901000C1800FEC0C0C0C0FEC0F9
:100AF000C0C0C0FE070E0E0901001C3600FEC0C0BB
:100B0000C0C0FEC0C0C0C0FE070E0E0901006C6C64
:100B100000FEC0C0C0C0FEC0C0C0C0FE030E0E04B8
:100B20000000C06000606060606060606060606085
:100B3000030E0E04010060C000C0C0C0C0C0C0C031
:100B4000C0C0C0C0050E0E04000070D80060606018
:100B50006060606060606060050E0E040000D8D8C0
:100B60000060606060606060606060600A0B160B2F
:100B700000007E006380618060C060C0F8C060C01B
:100B800060C0618063807E00090E1C0B01001A00AA
:100B90002C000000C180E180E180D180D980C98033
:100BA000CD80C580C380C380C1800A0E1C0C0100AB
:100BB00018000C0000001E0073806180C0C0C0C01F
:100BC000C0C0C0C0C0C0618073801E000A0E1C0C73
:100BD000010006000C0000001E0073806180C0C090
:100BE000C0C0C0C0C0C0C0C0618073801E000A0EFB
:100BF0001C0C01000E001B0000001E0073806180B1
:100C0000C0C0C0C0C0C0C0C0C0C0618073801E0072
:100C10000A0E1C0C01000D00160000001E0073805F
:100C20006180C0C0C0C0C0C0C0C0C0C0618073808F
:100C30001E000A0E1C0C01003300330000001E00D1
:100C400073806180C0C0C0C0C0C0C0C0C0C061806F
:100C500073801E00080707090001C3663C183C6644
:100C6000C30C0B160C00000F3039E030C061E0639C
:100C70006066606C60786030C079C0CF00090E1C7F
:100C80000B010018000C000000C180C180C180C1B0
:100C900080C180C180C180C180C18063003E0009E5
:100CA0000E1C0B010006000C000000C180C180C1B9
:100CB00080C180C180C180C180C180C18063003E8D
:100CC00000090E1C0B01001C0036000000C180C191
:100CD00080C180C180C180C180C180C180C180636A
:100CE000003E00090E1C0B0100630063000000C100
:100CF00080C180C180C180C180C180C180C180C1EC
:100D00008063003E000A0E1C0A000006000C000072
:100D100000C0C061806180330033001E001E000CE3
:100D2000000C000C000C00080B0B0A0100C0C0FEF8
:100D3000C7C3C3C7FEC0C0C0060B0B08010078CCF8
:100D4000CCCCD8D8CCCCCCCCD8070B0B08010030FD
:100D5000180078CC0C7CCCCCDC76070B0B0801009F
:100D600018300078CC0C7CCCCCDC76070B0B08015F
:100D700000386C0078CC0C7CCCCCDC76070B0B08F4
:100D8000010034580078CC0C7CCCCCDC76070B0B03
:100D90000801006C6C0078CC0C7CCCCCDC76070BAA
:100DA0000B08010030483078CC0C7CCCCCDC760BC6
:100DB00008100D01007BC0CE600C607FE0CC00CC41
:100DC00000DE6077C0070B0B0901FD3C66C6C0C0A2
:100DD000C6663C185870060B0B080100603000789E
:100DE000CCCCFCC0C0EC78060B0B0801001830001E
:100DF00078CCCCFCC0C0EC78060B0B080100386C3A
:100E00000078CCCCFCC0C0EC78060B0B0801006C61
:100E10006C0078CCCCFCC0C0EC78030B0B04000059
:100E2000C060006060606060606060030B0B040184
:100E30000060C000C0C0C0C0C0C0C0C0050B0B0473
:100E4000000070D8006060606060606060050B0B3F
:100E5000040000D8D8006060606060606060070BCC
:100E60000B0901006C38483C6CC6C6C6C66C380716
:100E70000B0B090100345800DCEEC6C6C6C6C6C658
:100E8000070B0B090100301800386CC6C6C6C66CCB
:100E900038070B0B090100183000386CC6C6C6C6EF
:100EA0006C38070B0B090100386C00386CC6C6C6DD
:100EB000C66C38070B0B090100345800386CC6C6E5
:100EC000C6C66C38070B0B0901006C6C00386CC689
:100ED000C6C6C66C38080707090001181800FF00CD
:100EE00018180708080901003A6CCED6D6E66CB887
:100EF000070B0B090100301800C6C6C6C6C6C6EEF1
:100F000076070B0B0901000C1800C6C6C6C6C6C67C
:100F1000EE76070B0B090100386C00C6C6C6C6C6C4
:100F2000C6EE76070B0B0901006C6C00C6C6C6C680
:100F3000C6C6EE76080E0E0800FD0C1800C3C36688
:100F400066243C1818183070070E0E0901FDC0C049
:100F5000C0D8ECC6C6C6C6ECD8C0C0C0080E0E08C5
:100F600000FD363600C3C36666243C18181830707E
:100F7000DF1311241FBECFEFD8E0DEBFCDBF11E0DD
:100F8000A0E0B1E0E8E0F5E302C005900D92A238E0
:100F9000B107D9F723E0A2E8B1E001C01D92AC3956
:100FA000B207E1F717E0C9EBD7E004C02197FE01D3
:100FB0000E948A18C83BD107C9F70E948C140C9470
:100FC000821A0C940000089580E00895833081F027
:100FD00028F4813099F08230A9F008958730A9F083
:100FE0008830C9F08430B1F4809180008F7D03C0D7
:100FF000809180008F7780938000089584B58F77EB
:1010000084BD089584B58F7DFBCF8091B0008F772C
:101010008093B00008958091B0008F7DF9CF1F9329
:10102000CF93DF93282F30E0F901E254FF4F8491F2
:10103000F901E051FF4FD491F901E452FF4FC491FF
:10104000CC23A9F0162F81110E94E607EC2FF0E0C7
:10105000EE0FFF1FEC54FF4FA591B4918FB7F8949A
:10106000EC91111108C0D095DE23DC938FBFDF9186
:10107000CF911F910895DE2BF8CFCF93DF9390E0AF
:10108000FC01E051FF4F249184529F4FFC01849159
:101090008823D1F090E0880F991FFC01E655FF4F9F
:1010A000A591B491FC01EC54FF4FC591D49161110D
:1010B0000EC09FB7F8948C91E22FE0958E238C930D
:1010C0002881E223E8839FBFDF91CF9108958FB7F6
:1010D000F894EC91E22BEC938FBFF6CF3FB7F894E6
:1010E0008091AB029091AC02A091AD02B091AE02A2
:1010F00026B5A89B05C02F3F19F00196A11DB11D73
:101100003FBFBA2FA92F982F8827BC01CD01620FAE
:10111000711D811D911D42E0660F771F881F991F69
:101120004A95D1F708958F929F92AF92BF92CF9236
:10113000DF92EF92FF920E946E084B015C0188ECF7
:10114000C82ED12CE12CF12C0E946E086819790967
:101150008A099B09683E734081059105A8F321E047
:10116000C21AD108E108F10888EE880E83E0981EC3
:10117000A11CB11CC114D104E104F10429F7FF90B2
:10118000EF90DF90CF90BF90AF909F908F90089599
:1011900008950895AF92BF92CF92DF92EF92FF929F
:1011A0000F931F93CF93DF936C017B018B01040F8F
:1011B000151FEB015E01AE18BF08C017D10759F02B
:1011C0006991D601ED91FC910190F081E02DC6016D
:1011D0000995892B79F7C501DF91CF911F910F9167
:1011E000FF90EF90DF90CF90BF90AF900895FC01FB
:1011F000538D448D252F30E0842F90E0821B930B7C
:10120000541710F0CF96089501970895FC01918D21
:10121000828D981761F0A28DAE0FBF2FB11D5D9624
:101220008C91928D9F5F9F73928F90E008958FEFC6
:101230009FEF0895FC01918D828D981731F0828D7A
:10124000E80FF11D858D90E008958FEF9FEF0895D1
:10125000FC01918D228D892F90E0805C9F4F821B35
:1012600091098F739927089581EB92E00E942809D4
:1012700021E0892B09F420E0822F089580E090E09E
:10128000892B29F00E94340981110C9400000895E3
:10129000FC01A48DA80FB92FB11DA35ABF4F2C91EB
:1012A000848D90E001968F739927848FA689B789E2
:1012B0002C93A089B1898C91837080648C93938DD9
:1012C000848D981306C00288F389E02D80818F7D7C
:1012D00080830895EF92FF920F931F93CF93DF9334
:1012E000EC0181E0888F9B8D8C8D98131AC0E88962
:1012F000F989808185FF15C09FB7F894EE89FF8931
:101300006083E889F98980818370806480839FBFCE
:1013100081E090E0DF91CF911F910F91FF90EF90CE
:101320000895F62E0B8D10E00F5F1F4F0F731127DE
:10133000E02E8C8D8E110CC00FB607FCFACFE88919
:10134000F989808185FFF5CFCE010E944809F1CF50
:10135000EB8DEC0FFD2FF11DE35AFF4FF0829FB78D
:10136000F8940B8FEA89FB8980818062CFCFCF937D
:10137000DF93EC01888D8823B9F0AA89BB89E889BD
:10138000F9898C9185FD03C0808186FD0DC00FB663
:1013900007FCF7CF8C9185FFF2CF808185FFEDCFE1
:1013A000CE010E944809E9CFDF91CF910895DC0179
:1013B0001696ED91FC91179712968C91481B4770E9
:1013C00081E090E001C0880F4A95EAF7E60FF11D31
:1013D0003081222319F0832B808308958095832305
:1013E000FBCFFB014181DC0112962C911297421731
:1013F00068F013962C911397241740F0608115968E
:101400002C91621718F424810C94D7090895FC01DB
:1014100080819281980F92832181921760F4948148
:101420009F5F94839381890F821710F08FEF820F53
:10143000838381E0089580E00895FC011282808119
:101440008150838314820895DB01ED91FC9109940E
:101450000F931F93CF93DF931F92CDB7DEB7009109
:10146000600310916103E0918F03F091900382E09B
:10147000099530E020E04AE0B8018EE593E00E9453
:10148000240A182FE0918F03F091900383E00995CF
:10149000E0918F03F091900380E009951123B9F159
:1014A00060916003709161039E012F5F3F4F46E49E
:1014B0008EE593E00E94240A898180935E03609107
:1014C0006003709161039E012F5F3F4F47E48EE5FB
:1014D00093E00E94240A898180935F0360916003F6
:1014E0007091610330E020E048E48EE593E00E94D3
:1014F000240A80936903609160037091610321E97C
:1015000033E047E18EE593E00E94240A11E0812F49
:101510000F90DF91CF911F910F9108950B96FC01D1
:10152000849108950A96FC0184910895FC018491A8
:1015300008950E94960A882321F0823011F083E0FA
:10154000089586E00895FC01E60FF11D849190E076
:10155000982F88273196E4918E0F911D089568E0A9
:101560000C94A30A66E00C94A30A5F926F927F9298
:101570008F929F92AF92BF92CF92DF92EF92FF92A3
:101580000F931F93CF93DF93EC01E62EF42EC22E20
:101590000C811D81C8010E94960AD82E8C819D81E4
:1015A0000E94990A982E21E0AA24AA94D21202C07D
:1015B0002FE0A22E8C819D810E94920AD82E8C81D0
:1015C0009D810E948E0AB82E8C819D810E94AF0A57
:1015D000E0E6EC1578F4009769F0080F191F91E622
:1015E000D92EBC14C0F4188A1B8A1C8A198A1A8A3C
:1015F00080E0A0C08C819D810E94B20AF0E4FC15BD
:1016000038F4009729F0080F191F81E4D82EE9CF8C
:101610000F5E1F4FE6CFBD1430F3892D90E0F80127
:1016200024912F3F31F40F5F1F4FBD14E1F2D3948B
:10163000F6CFCD1072C08C819D810E94960A9801D0
:101640002F5F3F4FF801882319F0823009F04EC018
:1016500084918B8BF90124912C8BF8013396E491C2
:10166000E88BF8013496E491E98BF8013596E49122
:10167000EA8B0115110509F4BBCF8C819D810E9475
:10168000990A3C89F31A9A89F91A9FEF930F9F0DD3
:101690002CA94EA94F1508F449C0921718F49F15AC
:1016A00008F047C02B899989E90E9FEF920F9E0D94
:1016B0004BA95DA95E1508F44DC0941718F49E154A
:1016C00008F037C0080F111D295F722E76947694AA
:1016D00076946F2C630E5E01FCE1AF0EB11C872C7B
:1016E000912CF61431F15E2C68014AC08491982F38
:1016F0009F7092509A8B82958F70898BF9012491FB
:10170000822F8F708C8B22952F702B8BF801329645
:10171000E491E295EF70E88BACCF3296E491EA2148
:10172000E80FF92FF11D0E0F1F1F7FCF921708F042
:10173000B6CF8889DF91CF911F910F91FF90EF90E5
:10174000DF90CF90BF90AF909F908F907F906F90E1
:101750005F900895941708F0B2CFEBCFF601849113
:101760006A817B815C8EFD8E1F8E8E8F95014BE38F
:10177000CE010E94240AFFEFCF1ADF0A28E0520EA2
:101780008C2D801B871550F3080D191DF394A9CFDC
:10179000EF92FF920F931F93CF93DF93F82E062FB4
:1017A000E42E152FE0917303F09174038EE593E01E
:1017B0000995080FCE2DD12F10E02991211108C0D5
:1017C000812FDF91CF911F910F91FF90EF9008959E
:1017D000402F6F2D8EE593E00E94B50AF80E180F8A
:1017E000ECCF2EE93FE0009709F40895F901319715
:1017F000F1F70197F8CFCF93DF9300D0CDB7DEB7E5
:1018000020ED37E03A8329839091BC00982311F0B2
:1018100081E00FC029813A81232B81F48091B002AD
:1018200081FDF6CF8091AF0281110DC091E09093C0
:10183000AF020F900F90DF91CF91089529813A81E7
:1018400021503109DFCF80E0F4CF84EA8093BC00DF
:1018500061E080E80E94FB0B811102C080E00895E6
:101860008091B900887F883051F0803141F08091BB
:10187000AF028111F3CF82E08093AF02EFCF88E710
:101880008093BB0084E88093BC0062E080E80E9403
:10189000FB0B882319F38091B00281FD05C0809174
:1018A000B900887F883119F781E0089584E9809331
:1018B000BC0064E080E10C94FB0B8093BB0084E8E7
:1018C0008093BC0063E080E80E94FB0B8823A1F0BA
:1018D0008091B00281FD0DC08091B900887F88326F
:1018E00041F08091AF02811106C092E09093AF0267
:1018F000089581E0089580E008951092AF02089560
:101900008093B0021092B90084FF05C08CE08093F0
:10191000B8000C947D0C88E4FACFCF93DF93FC01E0
:1019200023A5222389F0EC010E94250C811104C01B
:1019300080E0DF91CF9108958EA1811107C00E94B0
:101940005D0C8823A9F31BA681E0F3CF80E4F7CFD9
:101950000F931F93CF93DF93C62FD42F890163304A
:1019600001F138F4613099F0623009F449C0C1E006
:1019700012C0663029F1673091F16530C1F70E94DD
:101980008D0C811117C00E94560CC0E004C0FC01F0
:1019900086A50E94800C8C2FDF91CF911F910F9113
:1019A0000895FC0116A221E023A74111E0CF0E9477
:1019B000560CDDCF8D2F0E945D0C8111D8CFE3CF67
:1019C0000E948D0C8823F9F2DD2389F2F8018191C0
:1019D0008F010E945D0C8823B1F2D150F5CF0E9497
:1019E0008D0C882381F2DD2311F2F80184910E948D
:1019F0005D0CC82F882379F20F5F1F4FD150F3CFB2
:101A0000FC0146A321E023A7B2CFDB011496ED91A0
:101A1000FC9130E020E065E00994DB011496ED9143
:101A2000FC9130E020E062E00994DB011496ED9136
:101A3000FC9130E020E063E00994CF92DF92EF92D6
:101A4000FF920F931F93CF93DF938C017B016A0169
:101A500080E0F601C491811110C081E0CF3F49F0D0
:101A60004C2FB701C8010E94050D882309F444C01A
:101A700080E0BFEFCB1ADB0AECCF4FEFCF3F89F30B
:101A8000CE3FD9F1C03FA0F7C03E38F04C2F4F7089
:101A9000B701C8010E940D0DEBCFC03D38F04C2FAF
:101AA0004F70B701C8010E94150DE2CFC03CF8F09D
:101AB000D7011496ED91FC9130E020E040E064E025
:101AC000C8010995C295C07FCE5FD0E0CE010E94CB
:101AD000F10BD7011496ED91FC9130E020E041E04C
:101AE00064E0C8010995CE010E94F10BC1CFC7FD8A
:101AF000BFCF8C2F90E0F8CF80E0DF91CF911F9186
:101B00000F91FF90EF90DF90CF900895AF92BF922A
:101B1000CF92DF92FF920F931F93CF93DF936C01CD
:101B20008B01F42EE90180E1481709F47EC0841787
:101B300078F1AAE04A1709F461C0BFE04B1709F435
:101B40007FC0F80102811381F2E3FF1609F4DDC0C2
:101B5000FF1508F48EC085E1F81609F4DBC0A7E193
:101B6000FA1609F4ECC0B4E1FB1265C0D801169670
:101B7000ED91FC91179715968C918E0F9F2F911DCB
:101B800011928E179F07E1F7C8010E941D0A53C0EA
:101B9000E1E14E1709F451C0F5E14F13D2CFFB013B
:101BA000A280B3804CE750E0C6010E941D0DD50114
:101BB00014964C91406BB801C6010E94050D41E09E
:101BC000B801C6010E940D0DF50126813781D801AB
:101BD0001496ED91FC91D50115964C9166E0C601E5
:101BE000099581111CC080E0DF91CF911F910F9169
:101BF000FF90DF90CF90BF90AF900895DB011496D7
:101C0000ED91FC9130E020E042E061E0C6010995F1
:101C100044E850E0B801C6010E941D0D92CF40E09B
:101C2000B801C6010E94150D8CCF43E750E0B80102
:101C3000C6010E941D0D81E0D7CF48E650E0F7CFE6
:101C400041E0C6010E94150D40E0B801C6010E94A6
:101C50000D0D41E8B801C6010E94050D4881B8018B
:101C6000C6010E94050D40E0B801C6010E94150D95
:101C7000E2CFE6E4FE1609F46CC0F7E4FF1609F4BF
:101C80006DC08BE3F812D7CF99818B8138E0390F83
:101C9000813031F0833011F0392F02C0392F985044
:101CA00021E0D80113964C91491708F420E041E057
:101CB000391708F040E091E0F8015281351708F437
:101CC00090E0322F342B932319F4242309F4B3CF5B
:101CD000FA80D12CC12C843048F490E0FC01E85EFD
:101CE000FE4FC0808C5E9E4FDC01DC90F7FE04C08E
:101CF000BE01C8010E94F10988818C0D8883898109
:101D00008D0D8983FF0C91F796CFBE01C8010E940B
:101D1000F10991CFC8010E94070A882309F463CF13
:101D2000D8011696ED91FC91179715968C918E0F10
:101D30009F2F911D11928E179F07E1F77CCF18827C
:101D4000F80182818983858181508A8383818B8395
:101D500072CFD80115968C9188836DCFF80181815F
:101D6000FBCF20914802260F3327331F2132310544
:101D7000ECF420916C02FC0190E080E0243069F0EA
:101D800082E00895A09148022191AC01485D5D4F29
:101D9000A40FB52FB11D2C930196861798F380914F
:101DA0004802680F6093480280E0089581E008953A
:101DB00010926C0281E080936E0210926D0261E0DD
:101DC00082E10E940F0861E083E10E940F08E9EBC5
:101DD000F0E080818E7F808380818D7F808388E4A6
:101DE0008093B80085E48093BC0008950895E09145
:101DF000990280919802E81730F4F0E0EE5FFD4F11
:101E0000808190E008958FEF9FEF0895909199025F
:101E1000809198022FEF3FEF981748F4E92FF0E0F8
:101E2000EE5FFD4F208130E09F5F90939902C901E2
:101E300008958091980290919902891B990B0895B9
:101E4000CF93DF93CB01EA01642F0E94B10ECE0144
:101E5000DF91CF910895CF93DF931F92CDB7DEB777
:101E6000698361E0CE0101960E94B10E81E090E0AD
:101E70000F90DF91CF910895CF92DF92EF92FF9272
:101E80000F931F93CF937C016B0180919703811176
:101E900005C081E0809397030E94280A00916003A7
:101EA00010916103E0918F03F091900382E0099516
:101EB000E0918F03F091900381E0099530E020E0FC
:101EC00044E1B8018EE593E00E94240A21E933E061
:101ED00047E1B8018EE593E00E94240AE0918F0368
:101EE000F091900380E00995F701408151816EE106
:101EF0008EE10E94C80BF6014081518162E382E3CA
:101F00000E94C80BE0916C03F0916D03309719F0BB
:101F10008EE593E009950091600310916103E091D3
:101F20008F03F091900382E00995E0918F03F09187
:101F3000900381E0099530E020E045E1B8018EE5AD
:101F400093E00E94240AC82F882341F021E933E05E
:101F500047E1B8018EE593E00E94240AE0918F03E7
:101F6000F091900380E00995C111BECFCF911F91F0
:101F70000F91FF90EF90DF90CF900895DF92EF9256
:101F8000FF920F931F93CF93DF93EC01D62E1CADDE
:101F90000BAD7C0184E0E80EF11CE98DFA8DC701E0
:101FA0000995412F480F2D2D602FC7010E94B50ABA
:101FB0009BAD890F8BAF81E090E0DF91CF911F91B6
:101FC0000F91FF90EF90DF900895089590E080E0EA
:101FD00008950F931F93E8EFF0E06491E4EEF0E0D2
:101FE000E491F0E0EE0FFF1FEE52FF4F85919491C8
:101FF00000E412E42FE030E040E00E949A13611503
:1020000071058105910529F06F5F7F4F8F4F9F4FBD
:102010009F701F910F910895FC0101900020E9F736
:102020003197AF01481B590BBC0181EB92E00C9436
:10203000CA088F929F92AF92BF920F931F93CF9334
:10204000DF93CDB7DEB7A1970FB6F894DEBF0FBE12
:10205000CDBF19A2423008F44AE08E010F5D1F4F38
:10206000842E912CB12CA12CA50194010E94591809
:10207000E62FB901CA01EA30F4F4E05DD801EE932D
:102080008D01232B242B252B79F790E080E01097EE
:1020900019F0CD010E940C10A1960FB6F894DEBF86
:1020A0000FBECDBFDF91CF911F910F91BF90AF9029
:1020B0009F908F900895E95CE1CFCF92DF92EF92ED
:1020C000FF92CF93DF936B017C016DE281EB92E095
:1020D0000E946A09EC0166277727CB016C197D09FC
:1020E0008E099F094AE00E9419108C0F9D1FDF91F5
:1020F000CF91FF90EF90DF90CF900895BC01990FA2
:10210000880B990B97FD0C945D104AE00C94191004
:10211000FC0180819181009711F00C942C19089595
:102120000F931F93CF93DF93EC01888199810097E0
:1021300059F02A813B812617370730F081E0DF9183
:10214000CF911F910F9108958B016F5F7F4F0E9478
:10215000B519009759F0998388831B830A832C81D2
:102160003D81232B59F7FC011082E8CF80E0E7CFB7
:10217000EF92FF920F931F93CF93DF93EC01FB013C
:10218000E080F180E114F10411F104811581011561
:102190001105A9F08C819D81080F191FB801CE018E
:1021A0000E949010882399F0288139818C819D812B
:1021B000B701820F931F0E947B1A1D830C83CE01EF
:1021C000DF91CF911F910F91FF90EF90089588813B
:1021D0009981009711F00E942C19198218821D8292
:1021E0001C821B821A82EBCFEF92FF920F931F93F8
:1021F000CF93DF93EC017B018A01BA010E9490101A
:1022000028813981811114C02115310519F0C901C6
:102210000E942C19198218821D821C821B821A822C
:10222000CE01DF91CF911F910F91FF90EF90089514
:102230001D830C83B701C9010E947B1AF1CFEF9275
:10224000FF920F931F93CF93DF93CDB7DEB76297C3
:102250000FB6F894DEBF0FBECDBF8C01CB01F801E5
:102260001182108213821282158214824AE09E012A
:102270002F5F3F4F7901B9010E94BB17F701019011
:102280000020E9F73197AF014E195F09B701C80186
:102290000E94F41062960FB6F894DEBF0FBECDBF59
:1022A000DF91CF911F910F91FF90EF900895FB0167
:1022B000DC0111961C921E9213961C921E9212978C
:1022C00015961C921E9214978617970749F0608105
:1022D00071816115710521F0448155810C94F410D0
:1022E0000895FC01118210821382128215821482D9
:1022F000FB0101900020E9F73197AF01461B570B16
:102300000C94F410CF93DF9385ED8093BC00809103
:10231000240290912502A0912602B09127020796EF
:10232000A11DB11D23E0B695A795979587952A9590
:10233000D1F72091BC0024FD03C010926C0236C07E
:10234000409124025091250260912602709127024B
:10235000452B462B472B69F30097A105B10541F0AA
:102360002AE22A95F1F700C00197A109B109E1CF4E
:102370008091230291E0909322028823B9F0C091CA
:10238000B800D091BA008091BC008A7B8093BC00D9
:1023900060E082E10E940F0860E083E10E940F0884
:1023A0000E94D80ED093BA00C093B800DF91CF91AD
:1023B00008951F920F920FB60F9211242F933F93FF
:1023C0008F939F93AF93BF938091A7029091A802A0
:1023D000A091A902B091AA023091A60223E0230F96
:1023E0002D3758F50196A11DB11D2093A6028093AB
:1023F000A7029093A802A093A902B093AA02809189
:10240000AB029091AC02A091AD02B091AE020196E8
:10241000A11DB11D8093AB029093AC02A093AD02BD
:10242000B093AE02BF91AF919F918F913F912F9149
:102430000F900FBE0F901F90189526E8230F02965D
:10244000A11DB11DD2CF1F920F920FB60F92112472
:102450002F933F934F935F936F937F938F939F93AC
:10246000AF93BF93EF93FF9381EB92E00E944809F3
:10247000FF91EF91BF91AF919F918F917F916F915C
:102480005F914F913F912F910F900FBE0F901F9032
:1024900018951F920F920FB60F9211242F938F93BE
:1024A0009F93EF93FF93E091C102F091C20280816C
:1024B000E091C702F091C80282FD1BC0908180911B
:1024C000CA028F5F8F732091CB02821741F0E09197
:1024D000CA02F0E0EF54FD4F958F8093CA02FF913E
:1024E000EF919F918F912F910F900FBE0F901F90A2
:1024F00018958081F4CF1F920F920FB60F9211247E
:102500002F933F934F935F936F937F938F939F93FB
:10251000AF93BF93EF93FF938091B900887F80368C
:1025200009F44AC0F0F5883209F4A7C018F58031E3
:1025300009F49BC0B8F4882309F4F9C0883009F481
:1025400094C0FF91EF91BF91AF919F918F917F9137
:102550006F915F914F913F912F910F900FBE0F9010
:102560001F901895883109F488C0803251F7809304
:102570006B0214C0803409F49DC040F48033B9F379
:102580008833F9F680936B0285ECB0C0803509F48E
:1025900085C0883509F496C0883499F60E94821166
:1025A000D0CF883909F48CC038F5883729F050F439
:1025B000883611F0803729F683E080936C02109200
:1025C0006A0257C0883809F47BC0803919F0803816
:1025D00009F0B7CF80916A02803208F071C0E091B3
:1025E0006A0281E08E0F80936A028091BB00F0E066
:1025F000E65BFD4F80833DC0803B39F0E0F4803ADC
:1026000009F479C0883A09F09CCF84E080936C0289
:102610001092490210924802E0919402F0919502C2
:1026200009958091480281110FC081E08093480292
:102630001092280209C0803C09F4A6CF883C09F416
:10264000A3CF883B09F07DCFE091490281E08E0F56
:1026500080934902F0E0E85DFD4F80818093BB00EC
:10266000909149028091480229C080919102809303
:10267000BB0085EC8093BC0064CF90919002809168
:102680008F02981758F5E091900281E08E0F8093A9
:102690009002F0E0E159FD4F8081E9CFE091900296
:1026A00081E08E0F809390028091BB00F0E0E159B1
:1026B000FD4F80839091900280918F029817C8F20D
:1026C00085E8D8CFE091900281E08E0F8093900250
:1026D0008091BB00F0E0E159FD4F808380916E0254
:1026E00081115CCF81E080936D0284EA8093BC000D
:1026F00010926C0226CF85EC8093BC0010926C0285
:1027000080916A02803230F4E0916A02F0E0E65B88
:10271000FD4F108260916A0270E0E0919202F091A8
:1027200093028AE492E0099510926A020ACF10920D
:102730006B0234CFCF92DF92EF92FF920F931F93F1
:10274000E82FF92F05C0015011092109310961F164
:10275000908196239417B9F305C0015011092109FE
:10276000310911F1908196239413F7CFC12CD12C0C
:10277000E12CF12C0AC08FEFC81AD80AE80AF80A2F
:102780000C151D052E053F0579F0808186238417E1
:1027900091F36C2D7D2D8E2D9F2D1F910F91FF900C
:1027A000EF90DF90CF90089560E070E080E090E0DF
:1027B0001F910F91FF90EF90DF90CF9008951092AE
:1027C000B4021092B30288EE93E0A0E0B0E08093F0
:1027D000B5029093B602A093B702B093B80220E27C
:1027E00031E03093B2022093B10225EC30E0309317
:1027F000BE022093BD0224EC30E03093C00220934F
:10280000BF0220EC30E03093C2022093C10221ECE1
:1028100030E03093C4022093C30222EC30E03093C6
:10282000C6022093C50226EC30E03093C802209304
:10283000C7021092CA021092CB021092CC021092E0
:10284000CD02109251031092500380935203909343
:102850005303A0935403B093550382E391E0909304
:102860004F0380934E0310925D0310925C0384E447
:1028700091E090935B0380935A031092950310921A
:1028800096031092970310926303109262031092C2
:102890006503109264031092670381E080936603DE
:1028A00082E28093680310926D0310926C03E1E85A
:1028B000F3E08FE893E02FEF21938E179F07E1F766
:1028C00081E080937E0324EE37E0309374032093FD
:1028D000730380937503109276031092770380E45C
:1028E000809378031092790383EE97E0909390039E
:1028F00080938F0388E091E090936103809360035D
:1029000082E080938C030E94280A84E491E09093F3
:102910005B0380935A030895CF93DF93CDB7DEB75F
:1029200068970FB6F894DEBF0FBECDBF789484B51C
:10293000826084BD84B5816084BD85B5826085BDBB
:1029400085B5816085BD80916E00816080936E0049
:10295000109281008091810082608093810080913B
:1029600081008160809381008091800081608093EC
:1029700080008091B10084608093B1008091B000AC
:1029800081608093B00080917A00846080937A00A7
:1029900080917A00826080937A0080917A008160D1
:1029A00080937A0080917A00806880937A001092F8
:1029B000C10061E084E00E943D0861E085E00E9482
:1029C0003D0861E086E00E943D0861E087E00E94EA
:1029D0003D0860E08DE00E943D0861E08AE00E94D1
:1029E0003D0861E08BE00E943D0861E08CE00E94C0
:1029F0003D0860E088E00E943D0861E084E00E94BC
:102A00000F0860E085E00E940F08E091C102F0919C
:102A1000C20282E08083E091BD02F091BE0210828A
:102A2000E091BF02F091C0028FEC80831092C90246
:102A3000E091C502F091C60286E08083E091C30276
:102A4000F091C402808180618083E091C302F091A3
:102A5000C402808188608083E091C302F091C40247
:102A6000808180688083E091C302F091C4028081FC
:102A70008F7D808310929902109298021092970293
:102A8000109296020E94D80E88EC98E090939502DE
:102A90008093940289EC98E0909393028093920241
:102AA00080916203909163038450914099F184E096
:102AB00091E0909363038093620380917503811189
:102AC00023C1E9E0F1E0E491E0937603E0E1F1E095
:102AD000E491E093770380917603082E000C990B24
:102AE00020917703821B910927FD9395209178030C
:102AF000203441F0829FC001112426E096958795ED
:102B00002A95E1F78093790384EE97E0909374031C
:102B10008093730300E7C02ED12CE12CF12C8FEAB7
:102B2000482E512C612C712C95EA892E912CA12CC8
:102B3000B12C10E0212E10E0312EEBECF0E084916E
:102B4000EDEFF0E00491E9EEF0E01491112309F4C7
:102B500006C281110E94E607E12FF0E0EE0FFF1F91
:102B6000EE52FF4FA591B4918C91082309F4F7C15F
:102B700060E08AE00E940F0860E08BE00E940F088E
:102B800060E08CE00E940F0860E086E00E940F0881
:102B900060E087E00E940F080E94E90F9B01770F19
:102BA000440B550B2C56310941095109A1E0BFEFE7
:102BB0000E941D18A70196010E94F01721503F4F57
:102BC0004F4F5F4F3093A5022093A4020E949308B9
:102BD00061E086E00E940F0861E087E00E940F0834
:102BE0000E94E90F9B01770F440B550B2F553109BC
:102BF00041095109A1E0BFEF0E941D18A3019201F4
:102C00000E94F01721503F4F4F4F5F4F3093A30268
:102C10002093A2020E94930860E086E00E940F08C1
:102C200061E087E00E940F080E94E90F9B01770F87
:102C3000440B550B2A55310941095109A1E0BFEF59
:102C40000E941D18A50194010E94F01721503F4FCA
:102C50004F4F5F4F3093A1022093A0020E94930830
:102C60008CE491E00E940C108091A4029091A50246
:102C70000E947E1086E591E00E940C108091A202D5
:102C80009091A3020E947E1082E691E00E940C10B7
:102C90006091A0027091A102072E000C880B990B85
:102CA00097FF44C00E945D108DE691E00E940C10D9
:102CB0008091A2029091A3022091A0023091A102E2
:102CC000821793070CF475C02091A4023091A502DD
:102CD000821793070CF46DC080919E0290919F0221
:102CE000019690939F0280939E0230E020E061E085
:102CF00070E028173907F4F4AB01440F551F640F37
:102D0000751F2F5F3F4FF5CF813041F4E3E1F1E0D4
:102D1000E491E0937603E4E1F1E0DACEE1E1F1E081
:102D2000E491E0937603E2E1F1E0D2CE4AE00E9442
:102D30001910BACFCE010D960E941F1160E771E005
:102D4000CE0107960E947111BE01635F7F4FCE01D5
:102D500007960E94B810BC01CE0143960E945711FD
:102D600063E771E0CE0101960E947111BE016D5EB4
:102D70007F4FCE0101960E943C0FCE0101960E942A
:102D80008810CE0143960E948810CE0107960E94BB
:102D90008810CE010D960E94881061E08BE00E94A1
:102DA0000F0810929D0210929C0210929B021092AA
:102DB0009A028091A4029091A5022091A0023091E4
:102DC000A102821793070CF45FC02091A2023091F8
:102DD000A302821793070CF457C080919C02909134
:102DE0009D02019690939D0280939C0230E020E02A
:102DF00061E070E02817390744F4AB01440F551F18
:102E0000640F751F2F5F3F4FF5CFCE010D960E94C7
:102E10001F1160E771E0CE0107960E947111BE019B
:102E2000635F7F4FCE0107960E94B810BC01CE01B0
:102E300043960E94571169E771E0CE0101960E9406
:102E40007111BE016D5E7F4FCE0101960E943C0F55
:102E5000CE0101960E948810CE0143960E948810F0
:102E6000CE0107960E948810CE010D960E94881010
:102E700061E08AE00E940F0810929F0210929E0269
:102E800010929B0210929A028091A0029091A1024E
:102E90002091A4023091A502821793070CF45FC021
:102EA0002091A2023091A302821793070CF457C01D
:102EB00080919A0290919B02019690939B0280933D
:102EC0009A0230E020E061E070E02817390744F40E
:102ED000AB01440F551F640F751F2F5F3F4FF5CF98
:102EE000CE010D960E941F1160E771E0CE0107969A
:102EF0000E947111BE01635F7F4FCE0107960E9451
:102F0000B810BC01CE0143960E9457116DE771E0E5
:102F1000CE0101960E947111BE016D5E7F4FCE0100
:102F200001960E943C0FCE0101960E948810CE01AE
:102F300043960E948810CE0107960E948810CE0109
:102F40000D960E94881061E08CE00E940F0810929C
:102F50009F0210929E0210929D0210929C022114D8
:102F6000310409F4EACD0E943409882309F4E1CD43
:102F70000E940000DECDBB274A3031F4992322F4B1
:102F8000BDE2909581959F4F0C94C717BB27FB011D
:102F90005527AA27880F991FAA1FA41710F0A41B52
:102FA00083955051B9F7A05DAA3308F0A95DA193AC
:102FB000009779F7B111B1931192CB010C94E017FE
:102FC000DC01FC01672F71917723E1F7329704C090
:102FD0007C916D9370836291AE17BF07C8F308951B
:102FE000052E97FB1EF400940E94071857FD07D08A
:102FF0000E94591807FC03D04EF40C940718509502
:103000004095309521953F4F4F4F5F4F08959095D4
:103010008095709561957F4F8F4F9F4F08950E94C7
:103020007B18A59F900DB49F900DA49F800D911DBE
:1030300011240895B7FF0C940F180E940F18821BDB
:10304000930B08952F923F924F925F926F927F92CF
:103050008F929F92AF92BF92CF92DF92EF92FF92A8
:103060000F931F93CF93DF93CDB7DEB7CA1BDB0B54
:103070000FB6F894DEBF0FBECDBF09942A883988F9
:1030800048885F846E847D848C849B84AA84B98400
:10309000C884DF80EE80FD800C811B81AA81B9810C
:1030A000CE0FD11D0FB6F894DEBF0FBECDBFED0120
:1030B0000895A1E21A2EAA1BBB1BFD010DC0AA1F79
:1030C000BB1FEE1FFF1FA217B307E407F50720F091
:1030D000A21BB30BE40BF50B661F771F881F991F0C
:1030E0001A9469F760957095809590959B01AC0155
:1030F000BD01CF010895A29FB001B39FC001A39F5E
:10310000700D811D1124911DB29F700D811D112420
:10311000911D0895EE0FFF1F0590F491E02D099485
:103120000F931F93CF93DF938230910510F482E0C9
:1031300090E0E0919A03F0919B0330E020E0B0E052
:10314000A0E0309799F42115310509F44AC0281BF5
:10315000390B24303105D8F58A819B8161157105C1
:1031600089F1FB0193838283FE0111C0408151816B
:103170000281138148175907E0F04817590799F45D
:10318000109761F012960C93129713961C93329637
:10319000CF01DF91CF911F910F91089500939A0372
:1031A00010939B03F4CF2115310551F042175307BB
:1031B00038F0A901DB019A01BD01DF01F801C1CF9F
:1031C000EF01F9CF90939B0380939A03CDCFFE013B
:1031D000E20FF31F819391932250310939832883A1
:1031E000D7CF2091980330919903232B41F420915C
:1031F000100130911101309399032093980320918D
:103200000E0130910F012115310541F42DB73EB764
:103210004091120150911301241B350BE09198034A
:10322000F0919903E217F307A0F42E1B3F0B281728
:10323000390778F0AC014E5F5F4F2417350748F02F
:103240004E0F5F1F5093990340939803819391937E
:103250009FCFF0E0E0E09CCFCF93DF930097E9F0C1
:10326000FC01329713821282A0919A03B0919B03C2
:10327000ED0130E020E01097A1F420813181820F30
:10328000931F20919803309199032817390709F06B
:1032900061C0F0939903E0939803DF91CF91089573
:1032A000EA01CE17DF07E8F54A815B819E014115EF
:1032B0005105B1F7E901FB83EA8349915991C40FA4
:1032C000D51FEC17FD0761F4808191810296840F70
:1032D000951FE90199838883828193819B838A83E7
:1032E000F0E0E0E012968D919C9113970097B9F56C
:1032F0002D913C911197CD010296820F931F209141
:103300009803309199032817390739F6309751F50A
:1033100010929B0310929A03B0939903A093980381
:10332000BCCFD383C28340815181840F951FC817BE
:10333000D90761F44E5F5F4F88819981480F591F0B
:10334000518340838A819B81938382832115310538
:1033500009F0B0CFF0939B03E0939A039ECFFD0159
:10336000DC01C0CF13821282D7CFB0E0A0E0EBEB3C
:10337000F9E10C9424188C01009751F4CB010E94C0
:1033800090188C01C801CDB7DEB7E0E10C9440186D
:10339000FC01E60FF71F9C0122503109E217F307E9
:1033A00008F49DC0D901CD91DC911197C617D707BC
:1033B00098F0C530D10530F3CE01049786179707F2
:1033C00008F3C61BD70B2297C193D1936D937C93BF
:1033D000CF010E942C19D6CF5B01AC1ABD0A4C015B
:1033E0008C0E9D1EA0919A03B0919B03512C412CF1
:1033F000F12CE12C109731F580919803909199036D
:103400008815990509F05CC04616570608F058C0A3
:1034100080910E0190910F01009741F48DB79EB7F6
:103420004091120150911301841B950BE817F90785
:1034300008F055C0F0939903E0939803F901718364
:103440006083A0CF8D919C91119712966C901297EA
:1034500013967C901397A815B90559F56C0142E0B5
:10346000C40ED11CCA14DB0420F1AC014A195B095B
:10347000DA011296159780F062827382518340833D
:10348000D9016D937C93E114F10471F0D701139687
:10349000FC93EE93129776CF22968C0F9D1FF90125
:1034A00091838083F301EFCFF0939B03E0939A0322
:1034B00069CF4816590608F42C017D01D3019ACF33
:1034C000CB010E9490187C01009749F0AE01B80131
:1034D0000E94721AC8010E942C19870153CF10E074
:1034E00000E050CFFB01DC0102C001900D92415081
:1034F0005040D8F70895FB01DC0101900D920020A7
:08350000E1F70895F894FFCFF4
:103508000840000000808201860D0001A80C000020
:103518009C038000000100FF0100FF000000000084
:103528006A09CA08F708B709280906091A0900002C
:1035380000002B0F200FE60FF60E190F060FF70EDF
:1035480000000000BE0FCA08E60FE50F202D20522C
:103558006564203D2000202D20477265656E203D62
:103568002000202D20426C7565203D20000D0A00AA
:10357800312F00475245454E0052454400424C55B4
:023588004500FC
:00000001FF
